:020000040800F2
:100000000050002019020008210200082502000803
:10001000290200082D02000831020008000000003B
:100020000000000000000000000000003502000891
:1000300039020008000000003D020008DD0E000843
:100040004502000845020008450200084502000874
:100050004502000845020008450200084502000864
:100060004502000845020008450200084502000854
:100070004502000845020008450200084502000844
:100080004502000845020008450200084502000834
:100090004502000845020008450200084502000824
:1000A0004502000845020008450200084502000814
:1000B0004502000845020008450200084502000804
:1000C00045020008450200084502000845020008F4
:1000D00045020008450200084502000845020008E4
:1000E0004502000845020008450200080000000023
:1000F0000000000000000000000000000000000000
:1001000000000000000000005FF808F100B583B0B7
:10011000304B314A1360314A1360314B3149002270
:1001200001E01A6004338B42FBD32B4B1B6813B9DD
:100130002A4B1B6803B1FEE7264B2B4A13602B4A60
:1001400013602B4B2B4A2C4803E0116819600433D1
:1001500004328342F9D3244B1A68284B9A4204D1C3
:10016000224B1A681B689A4200D0FEE700F018FE86
:1001700001A8694600F07CFD214B224EF61AB6100C
:1001800000241D4603E055F8243098470134A64268
:10019000F9DC1D4B1D4EF61AB61000241D4603E077
:1001A00055F8243098470134A642F9DC01980099AB
:1001B00000F03CFF0546164B164CE41AA4101E46F0
:1001C00003E0013C56F824309847002CF9DC28461F
:1001D00000F020FDBABADECAB0000020FC03002007
:1001E000B00000200004002000000020AC0000202F
:1001F00000000020343E0008B00000207856341281
:1002000048020008480200084802000848020008A6
:10021000480200084802000808B5FFF777FF00BF52
:10022000FEE700BFFEE700BFFEE700BFFEE700BF3E
:10023000FEE700BFFEE700BFFEE700BFFEE700BF2E
:08024000FEE700BFFEE700BF6E
:1002480010B50446022804D9054840F2031100F00D
:100258004BFD044B1A6802F0380214431C6010BDB1
:10026800683900080020024010B50446102805D05F
:1002780020B1074840F22F1100F036FD054B1A68EF
:1002880022F010021A601A6814431C6010BD00BFE7
:1002980068390008002002402DE9F04105460C4667
:1002A800494B98421BD003F58063984217D003F559
:1002B8008063984213D003F5806398420FD003F50A
:1002C800806398420BD003F58063984207D003F50A
:1002D8008063984203D03D48B22100F005FDE378E1
:1002E8008BB1042B0FD0282B0DD0482B0BD0142BFF
:1002F80009D0102B07D01C2B05D0182B03D033485E
:10030800B32100F0F1FC23881BB93048B42100F078
:10031800EBFCE37803F00F073E4613F0100F0AD00A
:10032800A378013BDBB2022B03D92848BB2100F09C
:10033800DBFCA6783E432378FBB12F68002301201D
:100348004FF00F0C16E000FA03F221881140914299
:100358000FD199000CFA01F827EA080706FA01F10B
:100368000F43E178282901D16A6102E0482900D1C8
:100378002A610133072BE6D92F602388FF2B21D967
:100388006F68002301204FF00F0C18E003F10802FA
:1003980000FA02F22188114091420FD199000CFA1B
:1003A80001F827EA080706FA01F10F43E17828293E
:1003B80000D16A61E178482900D12A610133072B0D
:1003C800E4D96F60BDE8F081000801409C3900085D
:1003D80038B504460D46144B98421CD003F580638B
:1003E800984218D003F58063984214D003F58063CF
:1003F800984210D003F5806398420CD003F58063CF
:10040800984208D003F58063984204D0074840F228
:10041800691100F069FC25B904484FF4B57100F082
:1004280063FC256138BD00BF000801409C39000805
:1004380038B504460D46144B98421CD003F580632A
:10044800984218D003F58063984214D003F580636E
:10045800984210D003F5806398420CD003F580636E
:10046800984208D003F58063984204D0074840F2C8
:10047800791100F039FC25B904484FF4BD7100F03A
:1004880033FC656138BD00BF000801409C39000895
:100498000D4B1A6842F001021A6059680B4A0A406B
:1004A8005A601A6822F0847222F480321A601A683C
:1004B80022F480221A605A6822F4FE025A604FF42D
:1004C8001F029A60704700BF001002400000FFF84A
:1004D80010B5044650B1B0F5803F07D0B0F5802F75
:1004E80004D0104840F2111100F0FEFB0E4B1A68C0
:1004F80022F480321A601A6822F480221A60B4F555
:10050800803F03D0B4F5802F06D010BD064B1A6883
:1005180042F480321A6010BD034B1A6842F4A022DC
:100528001A6010BDD03900080010024038B50C46DA
:10053800054650B1B0F5803F07D0B0F5403F04D034
:100548001E4840F27F1100F0CFFB74B3B4F5802F42
:100558002BD0B4F5002F28D0B4F5402F25D0B4F512
:10056800801F22D0B4F5A01F1FD0B4F5C01F1CD027
:10057800B4F5E01F19D0B4F5001F16D0B4F5101F5C
:1005880013D0B4F5201F10D0B4F5301F0DD0B4F53A
:10059800401F0AD0B4F5501F07D0B4F5601F04D02F
:1005A80006484FF4C07100F09FFB054B5A6822F4CF
:1005B8007C122C4314435C6038BD00BFD03900085E
:1005C8000010024010B50446012804D903484FF42E
:1005D800CA7100F089FB024B1C6010BDD0390008BD
:1005E8006000424210B50446022804D905484FF479
:1005F8000E7100F079FB044B5A6822F00302144391
:100608005C6010BDD039000800100240024B5868E9
:1006180000F00C00704700BF0010024010B50446FF
:10062800A0B1802812D0902810D0A0280ED0B028D1
:100638000CD0C0280AD0D02808D0E02806D0F0284E
:1006480004D006484FF4197100F04EFB044B5A6869
:1006580022F0F00214435C6010BD00BFD0390008DE
:100668000010024010B5044680B1B0F5806F0DD07F
:10067800B0F5A06F0AD0B0F5C06F07D0B0F5E06F45
:1006880004D0064840F27E2100F02EFB044B5A6845
:1006980022F4E06214435C6010BD00BFD03900084A
:1006A8000010024010B5044680B1B0F5806F0DD03F
:1006B800B0F5A06F0AD0B0F5C06F07D0B0F5E06F05
:1006C80004D006484FF4267100F00EFB044B5A681C
:1006D80022F4605242EAC4045C6010BDD0390008BC
:1006E8000010024010B42A4B5B6803F00C03042B83
:1006F80005D0082B06D013BB264B036021E0254B01
:1007080003601EE0224B5A685B68C2F383420232E0
:1007180013F4803F04D1204B03FB02F2026010E087
:100728001B4B5B6813F4003F04D01B4B03FB02F226
:10073800026006E0174B03FB02F2026001E0154B72
:100748000360134B5A68C2F3031214498A5CD2B28D
:10075800046824FA02F242605C68C4F302240C5D67
:10076800E4B222FA04F484605C68C4F3C224095D2C
:10077800C9B2CA40C2605B68C3F381330849CB5C25
:10078800DBB2B2FBF3F202615DF8044B704700BFC5
:100798000010024000127A0000093D000800002005
:1007A8000400002038B504460D460E4B034003B93B
:1007B80020B90D4840F24A4100F096FA012D04D9BB
:1007C800094840F24B4100F08FFA25B1074B9A696E
:1007D80014439C6138BD054B9A6922EA04049C6164
:1007E80038BD00BF0200C0FFD03900080010024029
:1007F80038B504460D460E4B034003B920B90D48E1
:1008080040F2A44100F070FA012D04D9094840F2E1
:10081800A54100F069FA25B1074BDA681443DC609A
:1008280038BD054BDA6822EA0404DC6038BD00BF35
:100838000200C0FFD03900080010024038B5044655
:100848000D460E4B184200D120B90D4840F2C34165
:1008580000F04AFA012D04D9094840F2C44100F0D9
:1008680043FA25B1074B1A6914431C6138BD054B7F
:100878001A6922EA04041C6138BD00BF00360181F0
:10088800D03900080010024010B50446212818D0BD
:10089800312816D0392814D0412812D0612810D018
:1008A8007A280ED07B280CD07C280AD07D2808D046
:1008B8007E2806D07F2804D00E4840F2345100F03C
:1008C80013FA6309012B02D10B4B1B6806E0022BBC
:1008D80002D1094B1B6A01E0074B5B6A04F01F0455
:1008E80023FA04F414F0010F01D0012010BD0020F8
:1008F80010BD00BFD03900080010024010B582B00A
:100908000023019331242046FFF7BEFF019B0133EA
:100918000193019BB3F5A06F01D00028F3D03120DB
:10092800FFF7B2FF08B1012000E0002002B010BDBF
:1009380010B504461C4B98420BD0A3F57843984257
:1009480007D003F58063984203D018487A2100F055
:10095800CBF9154B9C420AD14FF480500121FFF787
:1009680047FF4FF480500021FFF742FF10BD104BA6
:100978009C420AD14FF480400121FFF75FFF4FF4FA
:1009880080400021FFF75AFF10BD0A4B9C4209D155
:100998004FF400400121FFF751FF4FF400400021C0
:1009A800FFF74CFF10BD00BF00300140003A0008BF
:1009B80000380040003C00402DE9F84305460C464D
:1009C800464B98420BD0A3F57843984207D003F5DD
:1009D8008063984203D04248A32100F085F9238818
:1009E80063B1B3F5806F09D0B3F5004F06D0B3F506
:1009F800404F03D03A48A62100F076F96388B3F552
:100A0800827F04D01BB13648A72100F06DF9A38876
:100A1800B3F5006F04D01BB13148A82100F064F988
:100A2800E3882BB1022B03D02D48A92100F05CF9F3
:100A38002389012B03D92A48AA2100F055F9638993
:100A4800B3F5007F04D01BB12548AB2100F04CF969
:100A5800A3898BB1082B0FD0102B0DD0182B0BD0DE
:100A6800202B09D0282B07D0302B05D0382B03D0CA
:100A78001B48AC2100F038F9E3892BB1802B03D057
:100A88001748AD2100F030F9238A1BB91448AE216C
:100A980000F02AF92A8802F44152B4F800906388D9
:100AA800B4F80480B4F806C027896689A089E1896A
:100AB80049EA030348EA03034CEA03033B4333438D
:100AC80003430B4313432B80AB8B23F400631B04BA
:100AD8001B0CAB83238A2B82BDE8F88300300140CE
:100AE800003A000838B504460D46124B98420CD01F
:100AF800A3F57843984208D003F58063984204D060
:100B08000D4840F2B71100F0EFF8012D04D90A485A
:100B18004FF4DC7100F0E8F82DB123889BB243F064
:100B28004003238038BD238823F040031B041B0C9B
:100B3800238038BD00300140003A000838B504462B
:100B48000D46094B98420CD0A3F57843984208D03B
:100B580003F58063984204D0044840F23A2100F03B
:100B6800C3F8A58138BD00BF00300140003A000835
:100B780010B50446094B98420CD0A3F57843984227
:100B880008D003F58063984204D0054840F24A2112
:100B980000F0AAF8A08980B210BD00BF0030014063
:100BA800003A000838B505460C46164B98420CD05A
:100BB800A3F57843984208D003F58063984204D09F
:100BC800114840F2163100F08FF8802C12D0402CDA
:100BD80010D0202C0ED0102C0CD0082C0AD0042CAD
:100BE80008D0022C06D0012C04D0074840F2173157
:100BF80000F07AF82B891C4201D0012038BD002072
:100C080038BD00BF00300140003A0008FEE700BFD1
:100C180008B5034800F08EF80120FFF7F7FF00BF82
:100C2800303A000808B50D4B1B6813B90C4A0B4B3A
:100C38001A600A4B1B68033020F003001844094A65
:100C4800904206D901F0ECFD0C2303604FF0FF3011
:100C580008BD024A1060184608BD00BFB400002055
:100C680000040020004C002001230360014B0B60AE
:100C7800704700BF1800002008B501F0D1FD5823C7
:100C880003604FF0FF3008BD08B501F0C9FD5823D7
:100C980003604FF0FF3008BD08B501F0C1FD5823CF
:100CA8000360002008BD00BF08B501F0B9FD582356
:100CB80003604FF0FF3008BD08B501F0B1FD5823BF
:100CC80003604FF0FF3008BD08B50138012804D88B
:100CD8000846114600F05CF808BD01F0A1FD582354
:100CE80003604FF0FF3008BD08B503460A460348C5
:100CF800194600F005F8FFF78BFF00BF843A00089B
:100D08000FB400B583B004AB53F8042B0193084823
:100D1800802102F0DDF9011E03DD054800F038F8F6
:100D28000146084603B05DF804EB04B0704700BF05
:100D3800BC00002010B5044601F0B4FE0146204670
:100D480000F026F80248012100F022F810BD00BF8B
:100D58000C3D000810B400244FF0604212E0D2F8B5
:100D6800803E13F0010F04D0D2F8003E13F0010FBB
:100D780001D1204609E01368002BFCD003781370DA
:100D8800013401308C42EAD308465DF8044B7047C1
:100D980008B5FFF7DFFF08BD08B500F069F808BD22
:100DA80082B000230193009303F1804303F50433D9
:100DB8001A6842F480321A601A46136803F4003342
:100DC8000093019B01330193009B1BB9019BB3F571
:100DD800A06FF2D1224B1B6813F4003F02D001230D
:100DE800009301E000230093009B012B36D11D4B9B
:100DF8001A6842F010021A601A6822F003021A6098
:100E08001A6842F002021A60A3F580535A685A60C1
:100E18005A685A605A6842F480625A605A6822F4E2
:100E28007C125A605A6842F4E8125A601A6842F012
:100E380080721A601A46136813F0007FFBD0084BC3
:100E48005A6822F003025A605A6842F002025A6055
:100E58001A46536803F00C03082BFAD102B0704706
:100E6800001002400020024008B5FFF799FF08BDB6
:100E780008B5104B1A6842F001021A6059680E4A08
:100E88000A405A601A6822F0847222F480321A608A
:100E98001A6822F480221A605A6822F4FE025A6004
:100EA8004FF41F029A60FFF7DFFF4FF00062034B19
:100EB8009A6008BD001002400000FFF800ED00E055
:100EC800034B1B681BB1024B1A68013A1A60704742
:100ED800D803002008B5FFF7F3FF08BD10B5FFF7EA
:100EE800D7FA4FF48030FFF7F3FAFFF707FD012830
:100EF80025D11020FFF7B8F90220FFF7A1F900204B
:100F0800FFF78CFB0020FFF7CDFB4FF48060FFF765
:100F1800A9FB4FF480304FF48021FFF707FB012035
:100F2800FFF750FB39242046FFF7AEFC0028FAD023
:100F38000220FFF757FBFFF769FB0828FBD110BD1C
:100F480008B503480021034A00F06AF908BD00BF4C
:100F580048010020DC3A000810B50446FFF7F0FF0E
:100F680001462046104A00F05BF9014620460F4A28
:100F780000F056F9014620460D4A00F051F90146A5
:100F880020460C4A00F04CF9014620460A4A00F077
:100F980047F901462046094A00F042F90146204631
:100FA800074A00F03DF910BD1C3B0008643B0008EF
:100FB800A03B0008D43B00080C3C0008203C00087B
:100FC800303C000810B50446FFF7BAFF014620463A
:100FD8000E4A00F025F9014620460D4A00F020F996
:100FE800014620460B4A00F01BF9014620460A4AF2
:100FF80000F016F901462046084A00F011F90146AA
:101008002046074A00F00CF910BD00BF403C00081C
:10101800743C0008943C00080C3C0008203C000884
:10102800303C0008F0B58DB0FFF758FF07A8FFF770
:1010380059FB444A079BA2FB03139A09013AB2F1F0
:10104800807F09D2404B5A60F021404A82F8231031
:1010580000229A6007221A603D48FFF76BFE3D4860
:1010680001F0B4FC3C4B1B683C4801211822DB68AA
:1010780001F034FC3A483B4B1968FFF741FE3A4807
:101088003A49FFF73DFE00F08FF8394800F090F834
:1010980000F0BAF800B9FEE7364B0093364B0193DF
:1010A800364B0293364B0393364B0493364840F243
:1010B80026212F4A502300F0BBF800B9FEE7324D35
:1010C800324E334F40F22620294600F0A1F801465F
:1010D800284600F0A1F8044630800028F2D03846AF
:1010E8002919042201F0E6FC48B1FFF729FF01465F
:1010F80030802846274A00F093F830801DE00434F9
:101108002C4425482146022201F0D4FC20B9284667
:10111800FFF722FF308010E020482146022201F02C
:10112800C9FC20B92846FFF74DFF308005E0284666
:1011380000211B4A00F074F830802846318800F0FE
:1011480073F8BFE7D34D621010E000E000ED00E057
:10115800A43C0008B83C0008A8000020D43C0008C3
:10116800F03C000820000020043D000800127A002E
:10117800280000203C01002040010020240000201D
:10118800440100207003002048010020DE030020F5
:10119800103D0008183D0008283D00082C3D0008B7
:1011A800343D0008704700BF08B500F0CDFA08BD0F
:1011B800F8B500F04FFC022000F044FC0A2001F0D2
:1011C8000BFB002414264FF462574FF4FA750FE016
:1011D8003046394600F01AFC284601F0FDFA304640
:1011E80043F6901100F012FC284601F0F5FA01349C
:1011F800022CEDDD142043F2764100F007FC642058
:1012080001F0EAFAF8BD00BF08B500F0ABFC08BD74
:1012180008B500F00FFD08BD08B501F013F908BDC9
:1012280008B500F00FFF08BD08B500F073FF08BD52
:101238002DE9F04F87B004460F469046059301F01C
:10124800E9FA8146129B0093139B0193149B029326
:1012580020464146109A119B00F058F94FF00A0BAE
:10126800002642F2107A3AE03846214600F0E2FCC5
:1012780005462046294601F0E5F800282FD12046EA
:10128800294600F025FA00F03BF805281AD001F0AD
:10129800C1FA09EB0A03984221D901F0BBFA814649
:1012A8000BF1FF3B1BF0FF0B1DD0129B0093139B10
:1012B8000193149B029320464146109A119B00F01B
:1012C80025F90CE05EB940461099059A00F01AFD20
:1012D800129801F01FF8139800F02AFA0126002E40
:1012E800C2D0012000E0002007B0BDE8F08F00BFA9
:1012F800024A1368591C1160187070477C0300205B
:1013080010B5094B1B78052B0BD1084B1C68084BF3
:101318001B681C4401F07EFA844202D80622024B64
:101328001A70014B187810BD8C030020840300202C
:10133800900300202DE9F84305460F460024694B29
:101348001C70694B1C70694B1E780136F6B21E7012
:1013580021464FF4C87201F0D1FA284646F460419C
:10136800634B1A68442300F0F3FE624BD3F8008005
:10137800D8F80030C5F80630B8F804306B81284634
:10138800FF21062201F0BAFA4FF0820985F8119080
:101398001123EB7505F11E00FF21042201F0AEFABE
:1013A800432385F8253085F82240442385F82330E7
:1013B800012685F82A6085F82B60062385F82C30ED
:1013C80085F82D404C4B1B68C5F82E304B4B1B88BD
:1013D8006B8685F83A4085F83B4085F83C4085F8AF
:1013E8003D40D8F80030C5F84630B8F80430A5F8C4
:1013F8004A3005F58B72424B1A606320FFF778FF7D
:101408004846FFF775FF5320FFF772FF6320FFF789
:101418006FFF3520FFF76CFF3046FFF769FF38464E
:10142800FFF766FF3D20FFF763FF0720FFF760FF28
:101438003046FFF75DFF2F4E04E03368185DFFF775
:1014480057FF0134052CF8DD0C20FFF751FF0A2067
:10145800FFF74EFF00242B4E03E0305DFFF748FFF7
:101468000134092CF9DD032F1FD13220FFF740FF8B
:101478000420FFF73DFF00241D4E04E03368185D8B
:10148800FFF736FF0134032CF8DD3620FFF730FF75
:101498000420FFF72DFF00241B4E04E03368185D7D
:1014A800FFF726FF0134032CF8DD3720FFF720FF74
:1014B8000320FFF71DFF0120FFF71AFF0320FFF7A6
:1014C80017FF0620FFF714FFFF20FFF711FF0C4B53
:1014D8001968491B2A39284689B200F085FEBDE8FB
:1014E800F88300BF780300208803002094030020BD
:1014F800E403002074030020800300208A030020F6
:101508007C03002030000020E80300202DE9F04192
:1015180080462248016022490A60224A1360224A12
:10152800069B1360214A079B1360214A089B13609E
:10153800132001F053FA01F07BFA1E4B03441E4AB4
:10154800136000231D4A138015491A46154F164E7D
:10155800164D17480AE00C68E2543C68E2543468B7
:10156800E2542C68E2540468E2540133032BF2DDA0
:101578000A4B1B685A79124B11094131197202F052
:101588000F0241325A7200F0F7FA40460121FFF784
:10159800D1FE01220B4B1A70BDE8F08174030020C4
:1015A800E4030020F0030020EC030020E8030020FF
:1015B800E003002021436500800300208A03002007
:1015C800300000208C03002008B50321FFF7B2FE8D
:1015D8000322014B1A7008BD8C0300202DE9F84F37
:1015E8002D4B1B68D0F83A201A6000F58D72DFF891
:1015F800B8E02A4C4FF00008C146294F294EDFF8C1
:10160800ACC0134613F8025B5278062D17D004D8E5
:10161800012D07D0032D0BD035E0332D16D0362DF4
:101628002CD030E0D3F800A03568C5F800A02AE037
:10163800D3F800A0DCF80050C5F800A023E0D3F8E8
:1016480000A0DEF80050C5F800A01CE0C4F8008037
:10165800CA4609E013F80AB025685D442D022560E2
:101668000AF1010A5FFA8AFABAF1030FF2D925687A
:101678004FF47A7A0AFB05F5256004E0D3F800A058
:101688003D68C5F800A01A4443189342B9D8FFF73B
:101698009BFF0120BDE8F88FE403002090030020A1
:1016A800E8030020F0030020E0030020EC03002002
:1016B80008B50522044B1A7001F0ACF8034B18600A
:1016C80000F066FA022008BD8C0300208403002085
:1016D80008B545291ED990F82330432B1CD190F822
:1016E8002A30022B1AD1D0F82E30104A12689342B1
:1016F80016D190F81A31352B14D190F81C31022BE1
:1017080002D0052B03D00FE0FFF768FF08BDFFF7F5
:10171800CFFF08BD002008BD002008BD002008BD7F
:10172800002008BD002008BD002008BD800300205F
:101738000023044903E0C25CCA540133DBB2032B23
:10174800F9D970473C00002030B587B0042001214A
:10175800FFF728F8E023ADF8003003238DF80230B6
:1017680018238DF80330214C20466946FEF794FD76
:101778004FF480500121FFF715F81D4D2846FFF75B
:10178800D7F80023ADF804304FF48272ADF8062084
:10179800ADF80830ADF80A30ADF80C304FF40072EF
:1017A800ADF80E202822ADF81020ADF8123007232E
:1017B800ADF81430284601A9FFF7FEF828460121A4
:1017C800FFF790F90425ADF8005010238DF8033089
:1017D80001238DF8023020466946FEF75DFD20465C
:1017E8002946FEF7F5FD07B030BD00BF00080140EF
:1017F8000030014070B506460C4D022428462146AB
:10180800FFF7D0F90028F9D008483146FFF796F9D4
:10181800064D012428462146FFF7C4F90028F9D0CF
:101828000248FFF7A5F9C0B270BD00BF0030014003
:1018380038B505460C4610480421FEF7F9FD02208C
:1018480000F0D8FFE4B204F01F002843FFF7D2FFEE
:10185800FF20FFF7CFFF054614F0800F03D0FF20CD
:10186800FFF7C8FF054604480421FEF7B1FD022032
:1018780000F0C0FF284638BD00080140F8B506460C
:101888000F4615460B4C20460421FEF7D1FD0220D9
:1018980000F0B0FF07F01F003043FFF7ABFF28460A
:1018A800FFF7A8FF20460421FEF792FD022000F072
:1018B800A1FFF8BD000801402DE9F04104460D469E
:1018C80010480421FEF7B4FD022000F093FF3A20EF
:1018D800FFF790FF4FF0000806E06F1C4046FFF747
:1018E80089FF287034463D46631E9EB2002CF4D111
:1018F80004480421FEF76CFD022000F07BFFBDE8E0
:10190800F08100BF0008014000B583B002200DF14E
:101918000601FFF7D1FFBDF8060003B05DF804FB30
:10192800F8B504460D460E480421FEF781FD022055
:1019380000F060FF7A20FFF75DFF05E06F1C287854
:10194800FFF758FF34463D46631E9EB2002CF5D182
:1019580003480421FEF73CFD022000F04BFFF8BDD0
:101968000008014010B500F06004084B1B789C4249
:101978000BD0A0201F210322FFF780FF034B1C7010
:1019880080201F216209FFF779FF10BD9503002011
:1019980010B50446FFF7E6FF00202146FFF748FF91
:1019A80010BD00BF38B505460C46FFF7DBFF4020E9
:1019B80029462246FFF762FF38BD00BF38B5054605
:1019C8000C46C9B2FFF7EEFF681CC0B2210AFFF748
:1019D800E9FF38BD10B50146D420FFF7E3FFD22058
:1019E8000121FFF7DFFF0F2000F004FFEA24204663
:1019F800FFF7CEFF10F0010FF9D1D2200021FFF739
:101A0800D1FFD920FFF7C4FF10BD00BF38B503468A
:101A18000C46D4201946FFF7C5FFD620E1B2FFF7E0
:101A2800C1FFD720210AFFF7BDFFEA240F2502E0F6
:101A3800284600F0DFFE2046FFF7AAFF10F0010F4E
:101A4800F6D138BD08B500F007017520FFF7AAFFE9
:101A580008BD00BF38B504463F480421FEF7E8FC3E
:101A6800022000F0C7FEFF2000210246FFF706FF14
:101A7800322000F0B1FE0025384B1D800820294691
:101A8800FFF79CFF0C202946FFF798FF0A2041F634
:101A9800FE11FFF793FF042041F6FF11FFF78EFFB9
:101AA800062041F6FF71FFF789FFB1212C4B197011
:101AB8003820FFF777FF282043F23F01FFF77EFF2A
:101AC80030204FF2F971FFF779FFC0200D21FFF7A1
:101AD80069FFC1202946FFF765FF8020C221322215
:101AE800FFF7CCFEC62040F61241FFF767FFC4207F
:101AF8001221FFF757FFCA2040F2DC51FFF75EFFC3
:101B0800E4202178FFF74EFFE5206178FFF74AFFD0
:101B1800E220A178FFF746FFE320E178FFF742FFD4
:101B2800E0202179FFF73EFFE1206179FFF73AFFD6
:101B380010204FF48071FFF769FF1F20FFF712FF95
:101B480080201B21C022FFF799FE80201F2104223C
:101B5800FFF794FE38BD00BF00080140960300203F
:101B68009803002008B57220FFF712FF052801D955
:101B78000130C0B208BD00BF08B5044B197841F068
:101B8800010119703820FFF70DFF08BD98030020E8
:101B980008B5044B197801F0FE0119703820FFF7D9
:101BA80001FF08BD9803002008B51120FFF712FFB8
:101BB80008B1012008BD002008BD00BF2DE9F04193
:101BC8000746884600251F241C260FE03046FFF7ED
:101BD800DFFE10F0020F09D0802021460246FFF7F1
:101BE8004DFEA02021468022FFF748FE28462146C8
:101BF800FFF71EFE10F0080FE8D1022041F6FF1192
:101C0800FFF7DCFE07F5CF511F31062089B2FFF739
:101C1800D5FE7A2000210A46FFF730FE38464146B5
:101C2800FFF77EFE80201F210822FFF727FEBDE870
:101C3800F08100BF70B505460E463920FFF7A8FEB3
:101C4800002837D01C4C00202188FFF7B7FEFFF78B
:101C58005BFE2080FFF758FE043884B2FFF754FE7D
:101C68006B1E9C4200DD9CB200F0800080B220B167
:101C780020463146FFF720FE00E000240E4D0C20E0
:101C88002988FFF79BFE2B88591E41F6FE129142C8
:101C980004D90C201146FFF791FE04E0591E0C20D0
:101CA80089B2FFF78BFE80201E214022FFF7E6FD58
:101CB800204670BD002070BD9603002010B4012A94
:101CC80002D101F1090300E00023022A0AD10B44E2
:101CD800023B07E00478427842EA042213440230C7
:101CE800023989B20129F5D829B1027803EB022318
:101CF80001E09BB213441A0CFBD1D84380B25DF8C3
:101D0800044B704710B4140A0C4B1C700C4B1A701F
:101D180000230C4C03E0CA5CE2540133DBB2032B12
:101D2800F9D90023084903E0C25CCA540133DBB285
:101D3800052BF9D95DF8044B704700BFAA030020B2
:101D480044000020A4030020F403002010B4002362
:101D580007E003F11A02845CCA5C944205D101339E
:101D6800DBB2032BF5D9012000E000205DF8044B1D
:101D7800704700BF10B4282914D9037B082B13D14E
:101D8800437B062B12D100230B4C07E003F12602FC
:101D9800815CE25C91420BD10133DBB2032BF5D9B4
:101DA800012006E0002004E0002002E0002000E01E
:101DB80000205DF8044B7047A403002030B42929A3
:101DC80016D9037B082B15D1437BABB9827B452AF7
:101DD80013D100220A4D07E002F11E01445CA95C00
:101DE8008C420AD10132D2B2032AF5D9012304E088
:101DF800002302E0002300E00023184630BC7047AF
:101E0800A403002010B40023064C06E09A1D815C50
:101E1800C154E15C81540133DBB2052BF6D95DF87E
:101E2800044B7047F403002010B5044600220276E4
:101E3800427640230375427583750E301421FFF7EF
:101E48003DFF030A2376607610BD00BF38B5002336
:101E5800084D09E003F11E0103F11A02845C4454A1
:101E6800E95C81540133DBB2032BF3D9FFF7DCFFC4
:101E780038BD00BFA4030020F0B4042300270FE0FE
:101E880003F12504055D294489B203F12905465D5E
:101E980041550AB1065500E00755090A013BDBB276
:101EA800002BEDD1F0BC704738B5044690F82430CB
:101EB80090F8225080F8245080F8223090F825308D
:101EC80090F8235080F8255080F82330FFF7D4FF8E
:101ED800002384F8323084F83330502384F82E30CD
:101EE80038BD00BF38B50446FFF78CFF00232375C3
:101EF80002226275104D09E003F1200103F1160278
:101F0800A05C6054E95CA1540133DBB2052BF3D922
:101F180000230A4D09E003F1260103F11C02A05C2D
:101F28006054E95CA1540133DBB2032BF3D92A20B6
:101F38002146FFF743FE38BDF4030020A403002028
:101F480038B504460D46FFF75DFF2046FFF77EFFD4
:101F5800002384F8223094F82430F72B04D994F81D
:101F68002520013284F82520083384F824302846B7
:101F78002146FFF723FE38BD38B50446FFF742FF78
:101F8800002525742C2363742046FFF75FFF122376
:101F980084F82F30204601212A46FFF785FF84F870
:101FA800265084F82750154B1A7884F8282084F88E
:101FB800295003321A70022284F83620042384F848
:101FC8003730052384F8383084F83950602184F894
:101FD8002E1084F83030782384F8313004F11A0058
:101FE8002021FFF76BFE030A84F8323084F83300AF
:101FF8003A202146FFF7E2FD38BD00BF430000202C
:10200800017C437C43EA0121143990F82E201209FF
:10201800C2EB82329300C81880B203B2002B00DCF6
:102028000020704730B408E001F1360412F8015B73
:102038000555013189B2013B9BB2002BF4D108460A
:1020480030BC704770B506460D461446104600F081
:1020580029FD83B2304629462246FFF7E3FF70BDCB
:1020680070B504460D461646FFF7CCFE46F0100341
:1020780084F82F30042E05D12046A9B20122FFF79B
:1020880013FF06E005B901252046A9B20122FFF792
:102098000BFF00252574282363742046FFF7D6FE1E
:1020A800042384F8303084F8315004F11A001C21DC
:1020B8000222FFF703FE030A84F8323084F8330063
:1020C80036202146FFF77AFD70BD00BF38B50446BB
:1020D8000D4601F128039BB21A0A02744374FFF7F4
:1020E800A3FE002384F8323084F8333005F11C0154
:1020F80004F11A0089B20222FFF7E0FD030A84F80E
:10210800323084F8330005F1360080B22146FFF7FB
:1021180055FD38BD38B504460D46074BB3F90010D8
:102128000022FFF79DFF192384F82F302046294607
:10213800FFF7CCFF38BD00BFA803002005E012F868
:10214800013B00F8013B013989B20029F7D17047FA
:102158002DE9F04105460F461646984600241E49CB
:102168001E4A06E00B5D2B55A01D135D2B54013450
:10217800E4B2052CF6D908232B7300246C7305F1FF
:102188000E000921164AFFF7D9FF2C741123EB75AD
:102198002046144909E000F11E03325CEA5400F1BC
:1021A8001A030A5CEA540130C0B20328F3D94FEA93
:1021B800182385F8243085F825803B0A85F82230D5
:1021C80085F82370002385F8263085F8283085F8AF
:1021D8002930BDE8F08100BFBC030020F4030020D3
:1021E800843D0008A403002070B504460D4601F1A3
:1021F8001C031B120374CEB206F11C034374FFF7D1
:1022080013FE05F108031B1284F82630083684F8FB
:10221800276005F1100104F11A0089B20122FFF7C5
:102228004DFD030A84F8283084F8290005F12A00B6
:1022380080B22146FFF7C2FC70BD00BF70B50446EE
:102248000D460023FF261D4805E0E6549A1DC15C93
:10225800A1540133DBB2052BF7D9082121730623DA
:10226800637304F10E00164AFFF768FF0023134E4C
:10227800184608E003F11602F15CA15403F12002AC
:10228800A0540133DBB2052BF4D900230D4809E033
:1022980003F12602E95CA15403F11C02C15CA154BC
:1022A8000133DBB2032BF3D9074B1A7842F008024B
:1022B8001A702A202146FFF781FC70BDF403002024
:1022C800903D0008A40300204500002010B400231E
:1022D8000E4C07E003F11C02815CE25C914210D1D4
:1022E8000133DBB2032BF5D90023094905E003F1DB
:1022F8001602825CCA540133DBB2052BF7D90120E0
:1023080000E000205DF8044B704700BFB4030020D4
:10231800BC0300200122064B1A700023054903E084
:10232800C25CCA540133DBB2032BF9D9704700BF32
:1023380045000020B40300202DE9F04104460E4674
:1023480090461F4600203949394A06E00B5C235461
:10235800851D135C63550130C0B20528F6D90823E2
:1023680023730025657304F10E000921314AFFF734
:10237800E5FE2C2363740623E37528462E4D2F496A
:1023880009E000F11E032A5CE25400F11A030A5C1A
:10239800E2540130C0B20328F3D92046FFF744FDC8
:1023A80084F8248084F825700B2384F8223084F87C
:1023B80023600023194604E003F12602A1540133E7
:1023C800DBB2072BF8D91E4B1A7884F82820033281
:1023D8001A70602384F82E30022284F82F200421FA
:1023E80084F83010002384F8313084F8323084F8CF
:1023F800333084F8343084F8353084F8362084F863
:10240800371084F83820262384F8393004F11A006C
:102418002021FFF753FC030A84F8323084F8330094
:102428003A202146FFF7CAFBBDE8F081BC03002033
:10243800F4030020843D00089C030020A40300202E
:1024480043000020F8B504460D4600293AD1A64BB2
:102458001B7813F0010F04D1A34B1B7813F0040F62
:1024680009D0A24B1B8833B9FFF79EFB18B1204651
:102478009F49FFF7E3FE9D4B1A8801321A809D4B56
:102488001B78012B40F08481974B1B7813F0020FC7
:1024980000F080810222974B1A70974A1378013313
:1024A800DBB21370954A117803F01F0343EA411118
:1024B8002046C9B2924B1A78924B1B78FFF73CFF23
:1024C8000020F8BDFFF756FCD0B1637D012B02D187
:1024D8002046FFF707FD844B1B7813F0080F00F028
:1024E8005B81637D022B40F059812046FFF7EEFEA9
:1024F800002800F0558102227B4B1A700020F8BD9D
:1025080020462946FFF75AFC002800F04B81E37D5E
:10251800112B07D194F8222022B994F82320352AC8
:1025280000F04281012B11D194F82220082A0DD104
:10253800754B1B6813B104F11A00984720462946C9
:10254800FFF7FEFCFEF72EFE0020F8BD352D02D861
:10255800062B40F02B8194F824300B2B40F0E780B9
:102568006A4B1C6020466A49FFF7F0FB002800F020
:102578001F8194F82F6016F0040F0ED0654B1D686C
:1025880035B194F825004009032100221346A847D5
:102598000522584B1A700020F8BD2046FFF730FD81
:1025A8000746544B1B78022B2DD106F01203122B31
:1025B80019D1204600210A46FFF752FD182384F856
:1025C8002F30554B1B682BB194F8230040099847CE
:1025D800014600E000210322464B1A702046FFF70F
:1025E80075FD0020F8BD0122424B1A70811889B28E
:1025F80016F0100F00D00021204609B20422FFF780
:102608002FFD0020F8BD042B2CD1424B1E68B6B11B
:1026180094F82E20120992002232A5F108039A425A
:1026280000DD9AB2D3199D4202DAAB1A9BB200E0E0
:102638003B4694F8250040090021B04700E00020FF
:1026480048B1204639B20922FFF70AFD0522294B75
:102658001A700020F8BD204639B20022FFF700FDAD
:102668000020F8BD032B2FD10422224B1A70294BCE
:102678001E68B6B194F82E20120992002232A5F1F4
:1026880008039A4200DD9AB2D3199D4202DAAB1AC6
:102698009BB200E03B4694F8250040090021B04772
:1026A80000E0002048B1204639B20922FFF7D8FCE3
:1026B8000522104B1A700020F8BD204639B20022BE
:1026C800FFF7CEFC0020F8BD052B73D016F0010FE4
:1026D80024D0411C204609B20922FFF7C1FC05227B
:1026E800044B1A700020F8BD45000020400000206F
:1026F800B4030020B903002042000020BA030020E0
:10270800AB030020B8030020B0030020AC03002076
:102718009C030020C4030020A003002000284BD005
:10272800204639B20022FFF79BFC0020F8BD274A5B
:102738001278934242D194F82520254B1B789A426F
:102748003ED194F82F6016F0020F04D02046FFF710
:1027580013FC0020F8BD16F0100F33D02046FFF709
:102768004FFC1C4B188048B916F0010F2CD020469E
:1027780000210A46FFF774FC0020F8BD94F82E00EB
:10278800000980002230083DA8421EDD0020F8BD67
:102798000020F8BD0020F8BD0020F8BD0020F8BDDD
:1027A8000020F8BD0020F8BD2A20F8BD0020F8BDA3
:1027B8000020F8BD0020F8BD0020F8BD0020F8BDBD
:1027C8000020F8BD0020F8BD0020F8BDAA030020B5
:1027D80044000020A803002082B0019000234FF499
:1027E8007A7100E00133019A01FB02F29342F9D3B6
:1027F80002B0704782B00190019B322202FB03F3C2
:10280800019302E0019B013B0193019B002BF9D14D
:1028180002B07047014B1868704700BFC80300201A
:10282800014B1868704700BFA80000202DE9F04749
:10283800089C8A46904602FB03F9054618B183694D
:102848000BB900F019FE224B9C4201D16C6808E0DC
:10285800204B9C4201D1AC6803E01F4B9C4208BF4F
:10286800EC68A3891A0703D523690BB100261BE07E
:102878002846214600F090FC0028F7D0002623E0E7
:10288800A768013FA760002F1AF8061016DAA36997
:102898009F420CDA2846224600F02AFCB0F1FF33AA
:1028A8005842584180B901364E45E9D10CE02368B9
:1028B8001970236819780A2903D1EBE7236819707E
:1028C800236801332360EEE7B6FBF8F0BDE8F08734
:1028D800D43D0008F43D0008143E000873B5009389
:1028E800054B06460D461446186831462A462346C7
:1028F800FFF79CFF02B070BDA80000200244034609
:10290800934202D003F8011BFAE7704770B50E46F0
:10291800054618B183690BB900F0AEFDAC68A38910
:10292800190701D5236983B92846214600F034FCEC
:1029380058B14FF0FF3070BD002B0EDB236816F83E
:10294800012C1A70236801332360A36816F8012B41
:10295800013BA360002AEFD117E0A269934209DB8B
:10296800236816F8012C1A70236819780A29EAD105
:10297800284602E016F8011C2846224600F0B8FB5B
:10298800B0F1FF3250425041D2E7002B16DAA2696B
:10299800934208DB23680A221A7023681978914247
:1029A80010D1284601E028460A21224600F0A0FB63
:1029B800B0F1FF335842584130B1BAE723680A22D0
:1029C8001A702368013323600A2070BD024B014648
:1029D8001868FFF79BBF00BFA800002038B5134B4D
:1029E80005461C68A36BD3B9182000F0FBFD43F221
:1029F8000E33A06303804AF6CD33438041F234237B
:102A080083804EF26D63C3804DF6EC63038105232A
:102A180043810B23838101220023C0E90423A36B94
:102A280028460021C3E9040138BD00BFA8000020E2
:102A3800194B10B51C68A36BD3B9182000F0D2FD50
:102A480043F20E33A06303804AF6CD33438041F24C
:102A5800342383804EF26D63C3804DF6EC630381AB
:102A6800052343810B23838101220023C0E904232A
:102A7800A16B0A4C0A6948695443094B03FB00409F
:102A8800A2FB03230132034443F10003C1E90423F9
:102A980023F0004010BD00BFA80000202DF45158BD
:102AA8002D7F954C034613F8012B002AFBD1181AE9
:102AB8000138704770B58AB10B4605461C7810F886
:102AC800016B0131B44201D1012A03D128781B7866
:102AD800C01A70BD013A002CEED1F7E7104670BD60
:102AE8002DE9F0478D688146AB420C4692461F4659
:102AF80043D38B8913F4906F3DD02668096902226D
:102B0800C1EB0608666906EB460696FBF2F608F185
:102B180001023A44964238BF16465B050FD5314646
:102B280000F0DEFD054698B12169424600F070FDCF
:102B3800A38923F4906343F08003A38113E0324612
:102B480000F022FE054670B94846216900F084FD70
:102B58000C23C9F80030A3894FF0FF3043F040033D
:102B6800A381BDE8F087256166614544C8EB060688
:102B78002560A6603D46AF4200D23D462A46206801
:102B8800514600F04EFDA36800205B1BA36023683C
:102B98001D442560BDE8F0872DE9F0439DB00393FF
:102BA8008B8907461C060D4616460CD50B6953B98A
:102BB800402100F095FD2860286110B90C233B6086
:102BC800C7E040236B610023099320238DF8293047
:102BD80030238DF82A3033461C4613F8012B1AB9D6
:102BE800B4EB06090FD002E0252AF5D1F8E73846FC
:102BF800294632464B46FFF773FF013000F0A480A8
:102C0800099B4B4409932378002B00F09D800023F7
:102C18004FF0FF3204930793059206938DF85330D3
:102C28001A9304F101094D4E4C463046217805228D
:102C380000F0E0FC09F10109049B28B1861B012082
:102C4800B04003430493EEE7D90644BF20228DF831
:102C580053201A0744BF2B228DF8532022782A2AA2
:102C680002D0079B21460EE0039A111D12680391BA
:102C7800002A01DB079204E0524243F00203079264
:102C8800049301340AE00C4622780131303A092ACB
:102C980003D80A2000FB0323F5E7079323782E2B9C
:102CA80019D163782A2B09D1039B02341A1D1B689A
:102CB8000392002BB8BF4FF0FF330BE0611C0023D9
:102CC8000C4622780131303A092A03D80A2000FB41
:102CD8000323F5E70593224E21783046032200F0BE
:102CE80089FC30B1861B4020B040049B013403436B
:102CF800049321781B480622661C8DF8281000F0E2
:102D080079FC88B1184B33B9039B073323F00703C9
:102D18000833039314E003AB0093384604A92A460A
:102D2800124BAFF3008007E003AB0093384604A9C9
:102D38002A460E4B00F08EF8B0F1FF3F804603D0D4
:102D4800099B4344099346E7AB895B0601D409987C
:102D580001E04FF0FF301DB0BDE8F083A03D000852
:102D6800A63D0008AA3D000800000000E92A000866
:102D78002DE9F84315461F468A680B6906469A42AC
:102D8800A8BF13462B6091F843200C46DDF820803D
:102D98000AB101332B602368990602D52B680233E8
:102DA8002B60236813F006091DD094F8433022687D
:102DB800003318BF012392061FD5E118302081F88F
:102DC80043005A1C94F845102244023382F84310F9
:102DD80013E03046394604F119020123C047013097
:102DE80007D009F10109E2682B68D31A9945F0DB8D
:102DF800DBE74FF0FF30BDE8F8833046394604F191
:102E08004302C0470130F4D023682A6803F0060360
:102E1800E168042B08BFC2EB01052369A2680CBF57
:102E280025EAE57500259A42C4BFC3EB0203ED18F5
:102E38004FF00009A9450ADA3046394604F11A026A
:102E48000123C0470130D4D009F10109F2E700207D
:102E5800BDE8F8832DE9FF470E7E80466E2E0C46AE
:102E680091469A460C9D01F1430000F0A58011D8C7
:102E7800632E22D009D8002E00F0AF80582E40F0E3
:102E8800BF8081F845607B4A4FE0642E1ED0692ED2
:102E98001CD0B5E0732E00F0A48009D86F2E2BD07B
:102EA800702E40F0AD800B6843F020030B6038E0D3
:102EB800752E21D0782E34D0A2E02B6801F142077C
:102EC8001A1D1B682A6081F842309DE022682B6831
:102ED80012F0800F03D01A1D2A601D6805E0510604
:102EE800F9D51A1D2A60B3F90050002D39DA2D23BF
:102EF8006D4284F8433034E022682B6812F0800F6A
:102F080003D01A1D2A601D6804E05206F9D51A1D5F
:102F18002A601D88237E574A6F2B14BF0A23082373
:102F28001BE07823544A84F845302368296813F055
:102F3800800F01F104062E6001D00D6802E05F06E3
:102F4800FBD50D88DE0744BF43F0200323601DB97D
:102F5800236823F0200323601023002184F8431002
:102F680001E0444A0A236668002EA66003DB216854
:102F780021F00401216005B96EB104F14201B5FBED
:102F8800F3F603FB1655555D0F4601F80159354612
:102F9800002EF4D100E00746082B0AD12368DD078C
:102FA80007D5626823699A4203DC302307F8013C9D
:102FB800013FC01B20612CE009682B6811F0800FCD
:102FC800626904D0191D29601B681A6005E049066A
:102FD800F8D5191D29601B681A800023236107464C
:102FE80017E02B681A1D2A601F683846FFF75AFD3C
:102FF80063682061984288BF23612369636005E0A4
:1030080004F1420784F8426001232361002384F815
:103018004330CDF800A04046214603AA4B46FFF7AF
:10302800A7FE013002D14FF0FF301FE0404649466D
:103038003A462369D0470130F5D023689B0705D469
:10304800E068039B9842B8BF18460FE00025E26885
:10305800039BD31A9D42F3DA4046494604F119020C
:103068000123D0470130DED00135F0E704B0BDE8D8
:10307800F08700BFB13D0008C23D000830B5141EFE
:103088009BB0054604DA8B2303604FF0FF301CE049
:103098004FF4027200910491ADF80C2014BF04F1B2
:1030A800FF3121464FF6FF7202910591ADF80E20CF
:1030B80069461A461E9BFFF76FFD431CBCBF8B2356
:1030C8002B6014B1009B00221A701BB030BD0000A9
:1030D80073B50093054B06460D46144618683146ED
:1030E8002A462346FFF7CAFF02B070BDA800002099
:1030F80070B50E461446054618B183690BB900F041
:10310800BBF9224B9C4201D16C6808E0204B9C42E1
:1031180001D1AC6803E01F4B9C4208BFEC68A3696F
:10312800A360A3891A0709D523693BB123692068DD
:10313800F6B2C01A636998420FDB08E028462146B8
:1031480000F02AF80028F1D04FF0FF3070BD284673
:10315800214600F013F90028F6D1A3680130013B9D
:10316800A36023685A1C22601E706369984204D0C9
:10317800A389DB0707D50A2E05D12846214600F08A
:10318800FDF80028E0D1304670BD00BFD43D0008EE
:10319800F43D0008143E0008324B70B51D68064621
:1031A8000C4625B1AB6913B9284600F065F92E4BDA
:1031B8009C4201D16C6808E02C4B9C4201D1AC6860
:1031C80003E02B4B9C4208BFEC68A28993B2190715
:1031D80020D4DD0605D4092342F040023360A281E1
:1031E8003BE0580712D5616B41B104F144039942A1
:1031F80002D0304600F030FA00236363A38923F03D
:103208002403A3810023636023692360A38943F017
:103218000803A38123694BB9A38903F42073B3F589
:10322800007F03D03046214600F090F9A38913F0BF
:10323800010205D00022A26062695242A26103E045
:10324800990758BF6269A26022694AB903F08000F1
:1032580080B230B143F04003A3814FF0FF3070BD1E
:10326800002070BDA8000020D43D0008F43D0008EF
:10327800143E00088A892DE9F041054610070C46DE
:1032880057D44B68002B02DC0B6C002B18DDE66A68
:10329800B6B102F48052002392B22F682B600AB1B3
:1032A800626D10E0216A28460123B047411C02469E
:1032B80009D12B683BB11D2B01D0162B46D12F60AD
:1032C8000020BDE8F081A3895B0705D56368D21AA1
:1032D800636B0BB1236CD21AE66A2846216A002375
:1032E800B047461CA28905D12B681BB11D2B01D004
:1032F800162B19D1002363602369D104236004D5F8
:10330800421C01D12B6803B96065616B2F600029ED
:10331800D6D004F14403994202D0284600F09CF923
:1033280000206063BDE8F08142F04002A281BDE860
:10333800F0810E69002EC3D00B680E60C6EB03083F
:1033480093070CBF4B6900238B6012E0A3894FF0F1
:10335800FF3043F04003A381BDE8F081A76A284607
:10336800216A32464346B8470028EFDD0644C0EBE1
:103378000808B8F1000FF1DCA2E7000038B50B69C6
:1033880005460C46DBB118B183690BB900F074F837
:103398000C4B9C4201D16C6808E00B4B9C4201D15C
:1033A800AC6803E0094B9C4208BFEC68B4F90C30E8
:1033B8002BB128462146BDE83840FFF75BBF002007
:1033C80038BD00BFD43D0008F43D0008143E000895
:1033D800F8B5074600F1480494B1A5686668013E4F
:1033E8000CD4AB89012B07D9B5F90E30013303D0C2
:1033F80038462946FFF7C2FF6835F0E72468EBE74F
:10340800F8BD0000002310B50446036043608360E4
:1034180081814366C28103614361836119465C30DF
:103428000822FFF76BFA054B24626362044BA36220
:10343800044BE362044B236310BD00BFFD37000853
:103448001F380008573800087B38000870B54B1E35
:1034580068255D430E4605F1740100F041F9044604
:1034680040B1002180E842000C30A06005F16802FC
:10347800FFF744FA204670BD836910B5044633BB94
:103488008364C3640365124B124A1B6882629842C4
:1034980004BF0123836100F01FF86060204600F03C
:1034A8001BF8A060204600F017F80421E060002215
:1034B8006068FFF7A7FFA06809210122FFF7A2FFB4
:1034C800E06812210222FFF79DFF0123A36110BDCE
:1034D8009C3D0008D9330008F8B51B4B07461E6809
:1034E800B36913B93046FFF7C7FF4836B468736845
:1034F800013B04D4B4F90C5075B16834F8E733686B
:103508002BB938460421FFF7A1FF306008B13668AF
:10351800ECE70C233B60F8BD4FF6FF73E381012312
:10352800A38165662560A560656025616561A56103
:1035380004F15C0029460822FFF7E0F96563A563FA
:10354800A564E5642046F8BD9C3D0008F0B58B896C
:1035580091B09E0705460C4625D4B1F90E100029F6
:1035680008DAA389002713F0800F14BF40264FF410
:1035780080660DE001AA00F0A3F90028F1DB029FA4
:103588004FF4806607F47047B7F500514F424F413A
:103598002846314600F0A4F860B9A3899A051DD4DD
:1035A80043F00203A38104F147032360236101234D
:1035B800636113E00A4BAB62A389206043F0800388
:1035C800A381206166614FB12846B4F90E1000F05E
:1035D80089F918B1A38943F00103A38111B0F0BDA3
:1035E800D9330008024B0146186800F079B800BFCB
:1035F800A800002010B5C9B202449042034605D085
:103608001C7801308C42F8D1184610BD002010BD3E
:1036180010B50023934203D0CC5CC4540133F9E7BE
:1036280010BD814270B501D300230EE08C18A04272
:10363800FAD28518134613F1FF3305D351426618A1
:10364800F65C2944CE54F6E770BD934203D0CC5CB7
:10365800C4540133F9E770BD30B500293CD051F8A6
:10366800042C0B1F1D49002AB8BF9B180A680C467A
:1036780012B95A600B6030BD93420DD219685818C0
:10368800904203D15A581144426819605A60236025
:1036980030BD994203D80A4651680029F9D1146807
:1036A80015199D420AD11B682344D018884213601B
:1036B80012D10868034413604B680CE002D90C234C
:1036C800036030BD18681C188C4203D10C68496827
:1036D800204418605960536030BD00BFD0030020FB
:1036E80070B5CD1C25F0030508350C2D38BF0C2509
:1036F800002D06463FDB8D423DD3214B1C68184602
:103708002146A1B10B685B1B0ED40B2B03D90B60B0
:10371800CC18CD501FE08C4202D1626802601AE0DA
:103728004B6863600C4616E00C464968E9E7154C9F
:1037380023681BB9304600F04DF820602946304612
:1037480000F048F8431C014615D0C41C24F00304BB
:1037580084420AD1256004F10B00231D20F00700E4
:10376800C31A0BD05A42E25070BD3046611A00F0BD
:1037780031F80130EED10C233360002070BD00BF5A
:10378800D0030020CC030020F8B5064614460D46A9
:1037980021B91146BDE8F840FFF7A2BF1AB9FFF7F3
:1037A8005BFF2046F8BD00F0BFF8A0420ED23046BD
:1037B8002146FFF795FF074650B129462246FFF7F5
:1037C80027FF30462946FFF747FF01E02846F8BDA6
:1037D8003846F8BD38B5064C002305460846236030
:1037E800FDF720FA431C02D1236803B12B6038BDD2
:1037F800D403002010B50C46B1F90E1000F09EF865
:10380800002803DB636D0344636510BDA38923F4BB
:103818008053A38110BD2DE9F0411D468B890746D1
:10382800DB050C46164605D5B1F90E100022022319
:1038380000F068F8A389384623F48053A381B4F9CB
:103848000E1032462B46BDE8F04100F017B810B50F
:103858000C46B1F90E1000F055F8431CA38903D1AA
:1038680023F48053A38110BD43F48053A381606582
:1038780010BDB1F90E1000F013B8000038B5074CB0
:10388800054600202060084611461A46FDF71CFA36
:10389800431C02D1236803B12B6038BDD403002038
:1038A80038B5064C0023054608462360FDF7E4F9C1
:1038B800431C02D1236803B12B6038BDD403002018
:1038C80038B5074C00230546084611462360FDF726
:1038D800DBF9431C02D1236803B12B6038BD00BF5C
:1038E800D403002038B5064C00230546084623605B
:1038F800FDF7D2F9431C02D1236803B12B6038BD10
:10390800D403002038B5074C05460020206008463F
:1039180011461A46FDF7C8F9431C02D1236803B1C2
:103928002B6038BDD403002051F8040C002802DABB
:1039380004390B58184404387047000038B5074C50
:10394800054600202060084611461A46FDF7B4F9DE
:10395800431C02D1236803B12B6038BDD403002077
:103968002E2E2F73797374656D2F7372632F737492
:103978006D333266312D7374647065726970682FA7
:1039880073746D3332663130785F666C6173682E9C
:10399800630000002E2E2F73797374656D2F737278
:1039A800632F73746D333266312D7374647065726E
:1039B8006970682F73746D3332663130785F677061
:1039C800696F2E63000000002E2E2F7379737465C3
:1039D8006D2F7372632F73746D333266312D737468
:1039E800647065726970682F73746D333266313034
:1039F800785F7263632E63002E2E2F73797374655C
:103A08006D2F7372632F73746D333266312D737437
:103A1800647065726970682F73746D333266313003
:103A2800785F7370692E630061626F727428292C45
:103A38002065786974696E672E2E2E002C206675B5
:103A48006E6374696F6E3A200000000061737365DD
:103A58007274696F6E2022257322206661696C6515
:103A6800643A2066696C6520222573222C206C69D3
:103A78006E65202564257325730A000061737365DC
:103A880072745F706172616D2829206661696C6566
:103A9800643A2066696C6520222573222C206C69A3
:103AA8006E652025640A00006D61696E2861726781
:103AB800633D25642C20617267763D5B0000000041
:103AC8002C20000022257322000000005D293B0AFB
:103AD80000000000485454502F312E30203230302E
:103AE800204F4B0D0A436F6E74656E742D547970B8
:103AF800653A20746578742F68746D6C0D0A50727D
:103B080061676D613A206E6F2D63616368650D0AA8
:103B18000D0A00003C68746D6C3E3C686561643E4B
:103B28003C7469746C653E53544D333246342045B9
:103B38004E4332384A36302045746865726E657473
:103B48002044656D6F3C2F7469746C653E3C2F682A
:103B58006561643E3C626F64793E00003C63656E5B
:103B68007465723E3C68313E57656C636F6D6520C5
:103B7800746F2053544D3332463420454E43323807
:103B88004A36302045746865726E65742044656DE8
:103B98006F3C2F68313E00003C62723E20436F6EDE
:103BA80074726F6C206469676974616C206F7574D6
:103BB8007075747320286E6F7420696D706C656DF4
:103BC800656E746564207965742900003C62723EF4
:103BD8002052656164206469676974616C20616E54
:103BE800616C6F6720696E7075747320286E6F74CE
:103BF80020696D706C656D656E7465642079657497
:103C0800290000003C62723E3C2F666F6E743E3C99
:103C18002F68323E000000003C2F63656E746572A9
:103C28003E3C68723E0000003C2F626F64793E3C67
:103C38002F68746D6C3E00003C68746D6C3E3C6887
:103C48006561643E3C7469746C653E5465737420A8
:103C5800706167653C2F7469746C653E3C2F6865BC
:103C680061643E3C626F64793E0000003C63656EAF
:103C78007465723E3C68313E5365636F6E642070B4
:103C88006167653C2F68313E000000003C62723E6F
:103C980048656C6C6F20576F726C640048656C6C7B
:103CA8006F2041524D20576F726C64210000000054
:103CB8005374616E64617264206F757470757420DA
:103CC8006D6573736167652E000000005374616E43
:103CD80064617264206572726F72206D65737361BE
:103CE80067652E0A0000000053797374656D2063C0
:103CF8006C6F636B3A202575487A0A004853452053
:103D08003D2025640A0000004745542000000000BB
:103D18003C68313E323030204F4B3C2F68313E00FA
:103D28002F2000002F7465737420000048545450ED
:103D38002F312E302034303120556E617574686F04
:103D480072697A65640D0A436F6E74656E742D54DA
:103D58007970653A20746578742F68746D6C0D0AF3
:103D68000D0A3C68313E34303120556E61757468F7
:103D78006F72697A65643C2F68313E0045000082A5
:103D880000004000200000000001080006040001B7
:103D98004300000048000020232D302B2000686CD1
:103DA8004C00656667454647003031323334353656
:103DB800373839414243444546003031323334358F
:103DC80036373839616263646566000000000000B8
:103DD80000000000000000000000000000000000DB
:103DE80000000000000000000000000000000000CB
:103DF80000000000000000000000000000000000BB
:103E080000000000000000000000000000000000AA
:103E1800000000000000000000000000000000009A
:0C3E28000000000000000000000000008E
:103E3400785634120204060800000000010203044C
:103E44000102030406070809B8000020000000006E
:103E540000A24A04C0A802015455581000250000CD
:103E640041726475696E6F2D3030000008080808CF
:103E74000100010A5001000000000000D43D0008C8
:103E8400F43D0008143E000800000000000000009B
:103E94000000000000000000983D00080000000041
:103EA400000000000000000000000000000000000E
:103EB40000000000000000000000000000000000FE
:103EC40000000000000000000000000000000000EE
:103ED40000000000000000004800002032547698E2
:040000050800010DE1
:00000001FF
